{
  "abi": [
    {
      "inputs": [
        {
          "internalType": "address",
          "name": "_votingEscrow",
          "type": "address"
        },
        {
          "internalType": "address",
          "name": "_governance",
          "type": "address"
        }
      ],
      "stateMutability": "nonpayable",
      "type": "constructor"
    },
    {
      "anonymous": false,
      "inputs": [
        {
          "indexed": true,
          "internalType": "address",
          "name": "gauge_address",
          "type": "address"
        }
      ],
      "name": "GaugeRemoved",
      "type": "event"
    },
    {
      "anonymous": false,
      "inputs": [
        {
          "indexed": true,
          "internalType": "address",
          "name": "gauge_address",
          "type": "address"
        }
      ],
      "name": "NewGauge",
      "type": "event"
    },
    {
      "inputs": [],
      "name": "MULTIPLIER",
      "outputs": [
        {
          "internalType": "uint256",
          "name": "",
          "type": "uint256"
        }
      ],
      "stateMutability": "view",
      "type": "function"
    },
    {
      "inputs": [],
      "name": "WEEK",
      "outputs": [
        {
          "internalType": "uint256",
          "name": "",
          "type": "uint256"
        }
      ],
      "stateMutability": "view",
      "type": "function"
    },
    {
      "inputs": [
        {
          "internalType": "address",
          "name": "_gauge",
          "type": "address"
        }
      ],
      "name": "add_gauge",
      "outputs": [],
      "stateMutability": "nonpayable",
      "type": "function"
    },
    {
      "inputs": [
        {
          "internalType": "address",
          "name": "_gauge",
          "type": "address"
        },
        {
          "internalType": "uint256",
          "name": "_weight",
          "type": "uint256"
        }
      ],
      "name": "change_gauge_weight",
      "outputs": [],
      "stateMutability": "nonpayable",
      "type": "function"
    },
    {
      "inputs": [
        {
          "internalType": "address",
          "name": "",
          "type": "address"
        },
        {
          "internalType": "uint256",
          "name": "",
          "type": "uint256"
        }
      ],
      "name": "changes_weight",
      "outputs": [
        {
          "internalType": "uint256",
          "name": "",
          "type": "uint256"
        }
      ],
      "stateMutability": "view",
      "type": "function"
    },
    {
      "inputs": [],
      "name": "checkpoint",
      "outputs": [],
      "stateMutability": "nonpayable",
      "type": "function"
    },
    {
      "inputs": [
        {
          "internalType": "address",
          "name": "_gauge",
          "type": "address"
        }
      ],
      "name": "checkpoint_gauge",
      "outputs": [],
      "stateMutability": "nonpayable",
      "type": "function"
    },
    {
      "inputs": [
        {
          "internalType": "address",
          "name": "_gauge",
          "type": "address"
        },
        {
          "internalType": "uint256",
          "name": "_time",
          "type": "uint256"
        }
      ],
      "name": "gauge_relative_weight",
      "outputs": [
        {
          "internalType": "uint256",
          "name": "",
          "type": "uint256"
        }
      ],
      "stateMutability": "view",
      "type": "function"
    },
    {
      "inputs": [
        {
          "internalType": "address",
          "name": "_gauge",
          "type": "address"
        },
        {
          "internalType": "uint256",
          "name": "_time",
          "type": "uint256"
        }
      ],
      "name": "gauge_relative_weight_write",
      "outputs": [
        {
          "internalType": "uint256",
          "name": "",
          "type": "uint256"
        }
      ],
      "stateMutability": "nonpayable",
      "type": "function"
    },
    {
      "inputs": [
        {
          "internalType": "address",
          "name": "_gauge",
          "type": "address"
        }
      ],
      "name": "get_gauge_weight",
      "outputs": [
        {
          "internalType": "uint256",
          "name": "",
          "type": "uint256"
        }
      ],
      "stateMutability": "view",
      "type": "function"
    },
    {
      "inputs": [],
      "name": "get_total_weight",
      "outputs": [
        {
          "internalType": "uint256",
          "name": "",
          "type": "uint256"
        }
      ],
      "stateMutability": "view",
      "type": "function"
    },
    {
      "inputs": [],
      "name": "governance",
      "outputs": [
        {
          "internalType": "address",
          "name": "",
          "type": "address"
        }
      ],
      "stateMutability": "view",
      "type": "function"
    },
    {
      "inputs": [
        {
          "internalType": "address",
          "name": "",
          "type": "address"
        }
      ],
      "name": "isValidGauge",
      "outputs": [
        {
          "internalType": "bool",
          "name": "",
          "type": "bool"
        }
      ],
      "stateMutability": "view",
      "type": "function"
    },
    {
      "inputs": [
        {
          "internalType": "address",
          "name": "",
          "type": "address"
        },
        {
          "internalType": "address",
          "name": "",
          "type": "address"
        }
      ],
      "name": "last_user_vote",
      "outputs": [
        {
          "internalType": "uint256",
          "name": "",
          "type": "uint256"
        }
      ],
      "stateMutability": "view",
      "type": "function"
    },
    {
      "inputs": [
        {
          "internalType": "address",
          "name": "",
          "type": "address"
        },
        {
          "internalType": "uint256",
          "name": "",
          "type": "uint256"
        }
      ],
      "name": "points_weight",
      "outputs": [
        {
          "internalType": "uint256",
          "name": "bias",
          "type": "uint256"
        },
        {
          "internalType": "uint256",
          "name": "slope",
          "type": "uint256"
        }
      ],
      "stateMutability": "view",
      "type": "function"
    },
    {
      "inputs": [
        {
          "internalType": "address",
          "name": "_gauge",
          "type": "address"
        }
      ],
      "name": "remove_gauge",
      "outputs": [],
      "stateMutability": "nonpayable",
      "type": "function"
    },
    {
      "inputs": [],
      "name": "time_sum",
      "outputs": [
        {
          "internalType": "uint256",
          "name": "",
          "type": "uint256"
        }
      ],
      "stateMutability": "view",
      "type": "function"
    },
    {
      "inputs": [
        {
          "internalType": "address",
          "name": "_gauge_addr",
          "type": "address"
        },
        {
          "internalType": "uint256",
          "name": "_user_weight",
          "type": "uint256"
        }
      ],
      "name": "vote_for_gauge_weights",
      "outputs": [],
      "stateMutability": "nonpayable",
      "type": "function"
    },
    {
      "inputs": [
        {
          "internalType": "address",
          "name": "",
          "type": "address"
        }
      ],
      "name": "vote_user_power",
      "outputs": [
        {
          "internalType": "uint256",
          "name": "",
          "type": "uint256"
        }
      ],
      "stateMutability": "view",
      "type": "function"
    },
    {
      "inputs": [
        {
          "internalType": "address",
          "name": "",
          "type": "address"
        },
        {
          "internalType": "address",
          "name": "",
          "type": "address"
        }
      ],
      "name": "vote_user_slopes",
      "outputs": [
        {
          "internalType": "uint256",
          "name": "slope",
          "type": "uint256"
        },
        {
          "internalType": "uint256",
          "name": "power",
          "type": "uint256"
        },
        {
          "internalType": "uint256",
          "name": "end",
          "type": "uint256"
        }
      ],
      "stateMutability": "view",
      "type": "function"
    },
    {
      "inputs": [],
      "name": "votingEscrow",
      "outputs": [
        {
          "internalType": "contract VotingEscrow",
          "name": "",
          "type": "address"
        }
      ],
      "stateMutability": "view",
      "type": "function"
    }
  ],
  "bytecode": {
    "object": "0x6080346100be57601f6112fc38819003918201601f19168301916001600160401b038311848410176100c35780849260409485528339810103126100be57610052602061004b836100d9565b92016100d9565b600080546001600160a01b039384166001600160a01b0319918216179091556001805492909316911617905562093a80428190048082029181830414901517156100a857600b5560405161120e90816100ee8239f35b634e487b7160e01b600052601160045260246000fd5b600080fd5b634e487b7160e01b600052604160045260246000fd5b51906001600160a01b03821682036100be5756fe608080604052600436101561001357600080fd5b60003560e01c908163059f8b1614610d7b575080630f467f9814610d12578063411e74b514610cd85780634e791a3a14610c885780634f2bfe5b14610c6157806352f9d92e14610b9957806358be1b7b14610b7b5780635aa6e67514610b54578063615e523714610b2a5780636472eee114610af05780636977ff9214610ac457806370c982ea146109c55780637e418fa0146109735780639d3d02301461092b578063c2c4c5c114610910578063d3078c94146108e1578063d4d2646e14610829578063d7136328146101b9578063dd7fb65b1461017a578063edba5273146101295763f4359ce51461010657600080fd5b3461012457600036600319011261012457602060405162093a808152f35b600080fd5b34610124576040366003190112610124576001600160a01b0361014a610d9c565b16600052600660205260406000206024356000526020526040806000206001815491015482519182526020820152f35b34610124576020366003190112610124576001600160a01b0361019b610d9c565b166000526002602052602060ff604060002054166040519015158152f35b34610124576040366003190112610124576101d2610d9c565b612710602435116107e5576001600160a01b03808216600052600260205261020160ff60406000205416610dc8565b80600054166040517fc4698ee5000000000000000000000000000000000000000000000000000000008152336004820152606081602481855afa90811561074f5760009161079f575b50600081600f0b1261075b576020602492604051938480927f237922790000000000000000000000000000000000000000000000000000000082523360048301525afa91821561074f5760009261071b575b5062093a8080420180421161070557819004908181810204811482151715610705578082028411156106c157336000526003602052604060002085871660005260205260406000209261037961037261271061034a61032e6002604051996103038b610e13565b80548b52600181015460208c015201548060408b0152600090888a0281116106ad575b508951610e9f565b946fffffffffffffffffffffffffffffffff6024359116610e9f565b04966040519761035989610e13565b8852602435602089015280604089015284860290610eb2565b8651610e9f565b3360005260046020526103a4610399604060002054602089015190610e92565b602087015190610eb2565b6127108111610669573360005260046020526040600020556104596103c889610fd7565b92888a166000526006602052604060002085870260005260205261044c600160406000200154936103f7610ebf565b87890260005260096020528c8c610417846001604060002001549a610e92565b868082111561065e5761042991610eb2565b911660005260066020526040600020898b02600052602052604060002055610e92565b818111156105ff57610eb2565b8385026000526009602052604060002055828402604086015111600014610606576104da916104a06104906104ca93895190610e92565b875190818111156105ff57610eb2565b888a1660005260066020526040600020858702600052602052600160406000200155865190610e92565b845190818111156105ff57610eb2565b910260005260096020526001604060002001555b426040820151116105a9575b5080518284166000526007602052604060002060408301516000526020526105286040600020918254610e92565b905580516040820151600052600a6020526105496040600020918254610e92565b9055610553610ebf565b503360005260036020526040600020828416600052602052600260408060002092805184556020810151600185015501519101553360005260056020526040600020911660005260205242604060002055600080f35b80518385166000526007602052604060002060408301516000526020526105d66040600020918254610eb2565b905560408151910151600052600a6020526105f76040600020918254610eb2565b9055836104fa565b5080610eb2565b50508351858716600052600660205260406000208284026000526020526106366001604060002001918254610e92565b90558351910260005260096020526106576001604060002001918254610e92565b90556104ee565b610429915080610eb2565b606460405162461bcd60e51b815260206004820152601360248201527f5573656420746f6f206d75636820706f776572000000000000000000000000006044820152fd5b6106bb9150888a0290610eb2565b8d610326565b606460405162461bcd60e51b815260206004820152601560248201527f4c6f636b206578706972657320746f6f20736f6f6e00000000000000000000006044820152fd5b634e487b7160e01b600052601160045260246000fd5b9091506020813d602011610747575b8161073760209383610e61565b810103126101245751908461029c565b3d915061072a565b6040513d6000823e3d90fd5b606460405162461bcd60e51b815260206004820152600d60248201527f496e76616c696420736c6f7065000000000000000000000000000000000000006044820152fd5b90506060813d82116107dd575b816107b960609383610e61565b81010312610124576020816107d06107d7936111ca565b50016111ca565b8461024a565b3d91506107ac565b606460405162461bcd60e51b815260206004820152601360248201527f496e76616c6964207573657220776569676874000000000000000000000000006044820152fd5b3461012457604036600319011261012457610842610d9c565b602435906001600160a01b0390816001541633036101245761086381610fd7565b9061086c610ebf565b9362093a809485420180421161070557869004868102968188041490151715610705576108cd946108c8931680600052600660205260406000208760005260205282604060002055600052600860205285604060002055610e92565b610eb2565b600082815260096020526040902055600b55005b346101245760403660031901126101245760206109086108ff610d9c565b6024359061112d565b604051908152f35b3461012457600036600319011261012457610929610ebf565b005b34610124576040366003190112610124576001600160a01b0361094c610d9c565b16600052600760205260406000206024356000526020526020604060002054604051908152f35b346101245760403660031901126101245761098c610d9c565b610994610db2565b906001600160a01b038091166000526005602052604060002091166000526020526020604060002054604051908152f35b3461012457602080600319360112610124576109df610d9c565b906001600160a01b038060015416330361012457610a2d908316928360005260028352610a1360ff60406000205416610dc8565b8360005260028352604060002060ff198154169055610fd7565b90610a36610ebf565b9162093a80928342018042116107055784900484810294818604149015171561070557600991610a8e918660005260068552604060002086600052855260006040812055866000526008855285604060002055610eb2565b918360005252604060002055600b557f94ac12f5301759f065db9de7f23677e50bef009f062b028d4d4612f620f0f5fb600080a2005b3461012457600036600319011261012457600b5460005260096020526020604060002054604051908152f35b34610124576040366003190112610124576020610908610b0e610d9c565b610b1781610fd7565b50610b20610ebf565b506024359061112d565b3461012457602036600319011261012457610b4b610b46610d9c565b610fd7565b50610929610ebf565b346101245760003660031901126101245760206001600160a01b0360015416604051908152f35b34610124576000366003190112610124576020600b54604051908152f35b3461012457602036600319011261012457610bb2610d9c565b6001600160a01b039081600154163303610124571680600052600260205260ff60406000205416610c1d578060005260026020526040600020600160ff198254161790557f88b3a3dcf49d2c2bc73de47dc84b60f3b9179d60d97b8ba43a1d3aa726c818b9600080a2005b606460405162461bcd60e51b815260206004820152601460248201527f476175676520616c7265616479206578697374730000000000000000000000006044820152fd5b346101245760003660031901126101245760206001600160a01b0360005416604051908152f35b34610124576020366003190112610124576001600160a01b03610ca9610d9c565b166000526006602052604060002060086020526040600020546000526020526020604060002054604051908152f35b34610124576020366003190112610124576001600160a01b03610cf9610d9c565b1660005260046020526020604060002054604051908152f35b3461012457604036600319011261012457610d2b610d9c565b610d33610db2565b906001600160a01b0380911660005260036020526040600020911660005260205260606040600020805490600260018201549101549060405192835260208301526040820152f35b346101245760003660031901126101245780670de0b6b3a764000060209252f35b600435906001600160a01b038216820361012457565b602435906001600160a01b038216820361012457565b15610dcf57565b606460405162461bcd60e51b815260206004820152601560248201527f496e76616c6964206761756765206164647265737300000000000000000000006044820152fd5b6060810190811067ffffffffffffffff821117610e2f57604052565b634e487b7160e01b600052604160045260246000fd5b6040810190811067ffffffffffffffff821117610e2f57604052565b90601f8019910116810190811067ffffffffffffffff821117610e2f57604052565b60001981146107055760010190565b9190820180921161070557565b8181029291811591840414171561070557565b9190820391821161070557565b600b80549060009180835260099060209282845260409485812090865196610ee688610e45565b8254885260018093015491878901928352805b6101f48110610f10575b5050505050505050505190565b428711610fd25762093a8096878101809111610fbe5780978551818102918183041490151715610faa579081610f9193928d5111600014610f9e57610f56908d51610eb2565b8c52808452600a8b52610f6d858520548751610eb2565b86525b808452898b528484208c518155878751910155428111610f96575b50610e83565b610ef9565b875538610f8b565b50838c52838652610f70565b602484634e487b7160e01b81526011600452fd5b602483634e487b7160e01b81526011600452fd5b610f03565b6001600160a01b0316600081815260086020818152604080842054929391929182156111245760069485855282822084835285528282209483519761101b89610e45565b8654895260018097015496828a01978852845b6101f48110611046575b505050505050505050505190565b42881161111f5762093a809788810180911161110b5780988a518181029181830414901517156110f757908c826110d694938251116000146110eb5761108c9151610eb2565b8d528488526007865288882081895286526110ab898920548c51610eb2565b8b525b8488528b865288882081895286528888208d518155848c519101554281116110db5750610e83565b61102e565b8488528686528888205538610f8b565b50889052878b526110ae565b602488634e487b7160e01b81526011600452fd5b602487634e487b7160e01b81526011600452fd5b611038565b94505050505090565b62093a808092048281029281840414901517156107055760008281526009602052604081205492831592836111c2576001600160a01b03168252600660205260408220908252602052604081205491670de0b6b3a764000092808402938404036111ae5761119a57500490565b80634e487b7160e01b602492526012600452fd5b602482634e487b7160e01b81526011600452fd5b505091505090565b519081600f0b82036101245756fea2646970667358221220b57b35b91fa2e63b59d7dea2485ce15dd79fd0001fb57091bfba14fb011434a364736f6c63430008110033",
    "linkReferences": {}
  },
  "methodIdentifiers": {
    "MULTIPLIER()": "059f8b16",
    "WEEK()": "f4359ce5",
    "add_gauge(address)": "52f9d92e",
    "change_gauge_weight(address,uint256)": "d4d2646e",
    "changes_weight(address,uint256)": "9d3d0230",
    "checkpoint()": "c2c4c5c1",
    "checkpoint_gauge(address)": "615e5237",
    "gauge_relative_weight(address,uint256)": "d3078c94",
    "gauge_relative_weight_write(address,uint256)": "6472eee1",
    "get_gauge_weight(address)": "4e791a3a",
    "get_total_weight()": "6977ff92",
    "governance()": "5aa6e675",
    "isValidGauge(address)": "dd7fb65b",
    "last_user_vote(address,address)": "7e418fa0",
    "points_weight(address,uint256)": "edba5273",
    "remove_gauge(address)": "70c982ea",
    "time_sum()": "58be1b7b",
    "vote_for_gauge_weights(address,uint256)": "d7136328",
    "vote_user_power(address)": "411e74b5",
    "vote_user_slopes(address,address)": "0f467f98",
    "votingEscrow()": "4f2bfe5b"
  },
  "id": 19
}