{
  "abi": [
    {
      "inputs": [],
      "name": "excludeArtifacts",
      "outputs": [
        {
          "internalType": "string[]",
          "name": "excludedArtifacts_",
          "type": "string[]"
        }
      ],
      "stateMutability": "view",
      "type": "function"
    },
    {
      "inputs": [],
      "name": "excludeContracts",
      "outputs": [
        {
          "internalType": "address[]",
          "name": "excludedContracts_",
          "type": "address[]"
        }
      ],
      "stateMutability": "view",
      "type": "function"
    },
    {
      "inputs": [],
      "name": "excludeSenders",
      "outputs": [
        {
          "internalType": "address[]",
          "name": "excludedSenders_",
          "type": "address[]"
        }
      ],
      "stateMutability": "view",
      "type": "function"
    },
    {
      "inputs": [],
      "name": "targetArtifactSelectors",
      "outputs": [
        {
          "components": [
            {
              "internalType": "address",
              "name": "addr",
              "type": "address"
            },
            {
              "internalType": "bytes4[]",
              "name": "selectors",
              "type": "bytes4[]"
            }
          ],
          "internalType": "struct StdInvariant.FuzzSelector[]",
          "name": "targetedArtifactSelectors_",
          "type": "tuple[]"
        }
      ],
      "stateMutability": "view",
      "type": "function"
    },
    {
      "inputs": [],
      "name": "targetArtifacts",
      "outputs": [
        {
          "internalType": "string[]",
          "name": "targetedArtifacts_",
          "type": "string[]"
        }
      ],
      "stateMutability": "view",
      "type": "function"
    },
    {
      "inputs": [],
      "name": "targetContracts",
      "outputs": [
        {
          "internalType": "address[]",
          "name": "targetedContracts_",
          "type": "address[]"
        }
      ],
      "stateMutability": "view",
      "type": "function"
    },
    {
      "inputs": [],
      "name": "targetSelectors",
      "outputs": [
        {
          "components": [
            {
              "internalType": "address",
              "name": "addr",
              "type": "address"
            },
            {
              "internalType": "bytes4[]",
              "name": "selectors",
              "type": "bytes4[]"
            }
          ],
          "internalType": "struct StdInvariant.FuzzSelector[]",
          "name": "targetedSelectors_",
          "type": "tuple[]"
        }
      ],
      "stateMutability": "view",
      "type": "function"
    },
    {
      "inputs": [],
      "name": "targetSenders",
      "outputs": [
        {
          "internalType": "address[]",
          "name": "targetedSenders_",
          "type": "address[]"
        }
      ],
      "stateMutability": "view",
      "type": "function"
    }
  ],
  "bytecode": {
    "object": "0x6080806040523461001657610aff908161001c8239f35b600080fdfe6080806040526004908136101561001557600080fd5b600091823560e01c9182631ed7831c1461084e575081633e5e3c23146107cf5781633f7286f41461075057816366d9a9a0146105d257816385226c811461049c578163916a17c614610240578163b5508aa91461010b575063e20c9f711461007c57600080fd5b3461010857806003193601126101085760405181548082528280526020808301937f290decd9548b62a8d60345a988386fc84ba6bc95484008f6362f93160ef3e56392915b8282106100e8576100e4856100d881890382610a8f565b604051918291826108ce565b0390f35b83546001600160a01b0316865294850194600193840193909101906100c1565b80fd5b8234610108578060031936011261010857815461012781610ab1565b916101356040519384610a8f565b8183528381528060207f8a35acfbc15ff81a39ae7d344fd709f28e8600b4aa8c65c6b64bfe7fe36bd19b8186015b85841061017857604051806100e489826109ca565b604051859183549160019280841c908481168015610236575b8883108114610222578284528894939291811561020657506001146101ce575b506101c0816001960382610a8f565b815201920193019290610163565b868a52838a20955089905b8082106101ef57508101830194506101c06101b1565b8654838301860152958501958894909101906101d9565b60ff19168584015250151560051b8101830194506101c06101b1565b5060248a60228f634e487b7160e01b835252fd5b91607f1691610191565b823461010857806003193601126101085760075461025d81610ab1565b9061026b6040519283610a8f565b80825260078352827fa66cc928b5edb82af9bd49922954155ab7b0942694bea4ce44661d9a8736c688602084015b8383106102ae57604051806100e48782610912565b6040516102ba81610a5d565b82546001600160a01b031681526040516001840180548083529089526020808a20908301918a915b81600784011061042d5784600197946002979460209794610345945491818110610411575b8181106103f5575b8181106103d9575b8181106103bd575b8181106103a1575b818110610385575b81811061036b575b10610357575b500382610a8f565b83820152815201920192019190610299565b6001600160e01b031916815286018e61033d565b828a1b6001600160e01b0319168452928901928b01610337565b92898c916001600160e01b03198560401b16815201930161032f565b92898c916001600160e01b03198560601b168152019301610327565b92898c916001600160e01b03198560801b16815201930161031f565b92898c916001600160e01b03198560a01b168152019301610317565b92898c916001600160e01b03198560c01b16815201930161030f565b92898c916001600160e01b03198560e01b168152019301610307565b92600161010060089286546001600160e01b031990818160e01b16835260c08282821b16602085015260a08383821b1660408601526080848460608282851b16818a01521b1690860152838360401b1690850152828260201b16908401521660e08201520194019201916102e2565b823461010857806003193601126101085760058054906104bb82610ab1565b926104c96040519485610a8f565b82845281815260207f036b6384b5eca791c62761152d0c79bb0604c104a5fb6f4eb0703f3154bb3db0828287015b86851061050c57604051806100e48a826109ca565b604051829184549160019280841c9084811680156105c8575b89831081146105b5578284528994939291811561059a5750600114610562575b50610554816001960382610a8f565b8152019301940193916104f7565b878752838720955086905b8082106105835750810183019450610554610545565b86548383018601529585019589949091019061056d565b60ff1916858401525015158a1b810183019450610554610545565b634e487b7160e01b885260228f52602488fd5b91607f1691610525565b82346101085780600319360112610108576006546105ef81610ab1565b906105fd6040519283610a8f565b80825260068352827ff652222313e28459528d920b65115c16c04f3efc82aaedc97be59f3f377c0d3f602084015b83831061064057604051806100e48782610912565b60405161064c81610a5d565b82546001600160a01b031681526040516001840180548083529089526020808a20908301918a915b8160078401106106e157846001979460029794602097946106cf945491818110610411578181106103f5578181106103d9578181106103bd578181106103a1578181106103855781811061036b571061035757500382610a8f565b8382015281520192019201919061062b565b92600161010060089286546001600160e01b031990818160e01b16835260c08282821b16602085015260a08383821b1660408601526080848460608282851b16818a01521b1690860152838360401b1690850152828260201b16908401521660e0820152019401920191610674565b8234610108578060031936011261010857604051600280548083529083526020808301937f405787fa12a823e0f2b7631cc41b3ba8828b3321ca811111fa75cd3aa3bb5ace92915b8282106107af576100e4856100d881890382610a8f565b83546001600160a01b031686529485019460019384019390910190610798565b8234610108578060031936011261010857604051600380548083529083526020808301937fc2575a0e9e593c00f959f8c92f12db2869c3395a3b0502d05e2516446f71f85b92915b82821061082e576100e4856100d881890382610a8f565b83546001600160a01b031686529485019460019384019390910190610817565b8390346108ca57816003193601126108ca57600180548083528184526020808401947fb10e2d527612073b26eecdfd717e6a320cf44b4afac2b0732d9fcbe2b7fa0cf69392915b8282106108ac576100e4866100d8818a0382610a8f565b84546001600160a01b03168752958601959383019390830190610895565b5080fd5b6020908160408183019282815285518094520193019160005b8281106108f5575050505090565b83516001600160a01b0316855293810193928101926001016108e7565b602080820190808352835180925260409283810182858560051b840101960194600080935b86851061094957505050505050505090565b909192939480969798603f19838203018652895182606081888501936001600160a01b038151168652015193888382015284518094520192019085905b8082106109a75750505090806001929a019501950193969594929190610937565b919380600192946001600160e01b03198751168152019401920189939291610986565b6020808201818352835180915260408301918060408360051b860101950193600080915b8483106109ff575050505050505090565b90919293949596603f19828203018752848851805190818452855b828110610a495750508083018201859052601f01601f19169091018101978101960194939260010191906109ee565b818101840151858201850152889301610a1a565b6040810190811067ffffffffffffffff821117610a7957604052565b634e487b7160e01b600052604160045260246000fd5b90601f8019910116810190811067ffffffffffffffff821117610a7957604052565b67ffffffffffffffff8111610a795760051b6020019056fea2646970667358221220d06b31c4fbf610031d34b8a191e8affa35cd5d8f96ebe677a6d20d16a0cc1d8c64736f6c63430008110033",
    "linkReferences": {}
  },
  "methodIdentifiers": {
    "excludeArtifacts()": "b5508aa9",
    "excludeContracts()": "e20c9f71",
    "excludeSenders()": "1ed7831c",
    "targetArtifactSelectors()": "66d9a9a0",
    "targetArtifacts()": "85226c81",
    "targetContracts()": "3f7286f4",
    "targetSelectors()": "916a17c6",
    "targetSenders()": "3e5e3c23"
  },
  "id": 6
}