{
  "abi": [
    {
      "inputs": [
        {
          "internalType": "address",
          "name": "_gaugeController",
          "type": "address"
        },
        {
          "internalType": "address",
          "name": "_governance",
          "type": "address"
        }
      ],
      "stateMutability": "nonpayable",
      "type": "constructor"
    },
    {
      "inputs": [],
      "name": "WEEK",
      "outputs": [
        {
          "internalType": "uint256",
          "name": "",
          "type": "uint256"
        }
      ],
      "stateMutability": "view",
      "type": "function"
    },
    {
      "inputs": [
        {
          "internalType": "address",
          "name": "_market",
          "type": "address"
        },
        {
          "internalType": "address",
          "name": "_lender",
          "type": "address"
        },
        {
          "internalType": "uint256",
          "name": "_forwardTimestampLimit",
          "type": "uint256"
        }
      ],
      "name": "checkpoint_lender",
      "outputs": [],
      "stateMutability": "nonpayable",
      "type": "function"
    },
    {
      "inputs": [
        {
          "internalType": "address",
          "name": "_market",
          "type": "address"
        },
        {
          "internalType": "uint256",
          "name": "_forwardTimestampLimit",
          "type": "uint256"
        }
      ],
      "name": "checkpoint_market",
      "outputs": [],
      "stateMutability": "nonpayable",
      "type": "function"
    },
    {
      "inputs": [
        {
          "internalType": "address",
          "name": "_market",
          "type": "address"
        },
        {
          "internalType": "uint256",
          "name": "_claimFromTimestamp",
          "type": "uint256"
        },
        {
          "internalType": "uint256",
          "name": "_claimUpToTimestamp",
          "type": "uint256"
        }
      ],
      "name": "claim",
      "outputs": [],
      "stateMutability": "nonpayable",
      "type": "function"
    },
    {
      "inputs": [],
      "name": "gaugeController",
      "outputs": [
        {
          "internalType": "contract GaugeController",
          "name": "",
          "type": "address"
        }
      ],
      "stateMutability": "view",
      "type": "function"
    },
    {
      "inputs": [],
      "name": "governance",
      "outputs": [
        {
          "internalType": "address",
          "name": "",
          "type": "address"
        }
      ],
      "stateMutability": "view",
      "type": "function"
    },
    {
      "inputs": [
        {
          "internalType": "address",
          "name": "",
          "type": "address"
        },
        {
          "internalType": "address",
          "name": "",
          "type": "address"
        },
        {
          "internalType": "uint256",
          "name": "",
          "type": "uint256"
        }
      ],
      "name": "lendingMarketBalances",
      "outputs": [
        {
          "internalType": "uint256",
          "name": "",
          "type": "uint256"
        }
      ],
      "stateMutability": "view",
      "type": "function"
    },
    {
      "inputs": [
        {
          "internalType": "address",
          "name": "",
          "type": "address"
        },
        {
          "internalType": "address",
          "name": "",
          "type": "address"
        }
      ],
      "name": "lendingMarketBalancesEpoch",
      "outputs": [
        {
          "internalType": "uint256",
          "name": "",
          "type": "uint256"
        }
      ],
      "stateMutability": "view",
      "type": "function"
    },
    {
      "inputs": [
        {
          "internalType": "address",
          "name": "",
          "type": "address"
        },
        {
          "internalType": "uint256",
          "name": "",
          "type": "uint256"
        }
      ],
      "name": "lendingMarketTotalBalance",
      "outputs": [
        {
          "internalType": "uint256",
          "name": "",
          "type": "uint256"
        }
      ],
      "stateMutability": "view",
      "type": "function"
    },
    {
      "inputs": [
        {
          "internalType": "address",
          "name": "",
          "type": "address"
        }
      ],
      "name": "lendingMarketTotalBalanceEpoch",
      "outputs": [
        {
          "internalType": "uint256",
          "name": "",
          "type": "uint256"
        }
      ],
      "stateMutability": "view",
      "type": "function"
    },
    {
      "inputs": [
        {
          "internalType": "address",
          "name": "",
          "type": "address"
        }
      ],
      "name": "lendingMarketWhitelist",
      "outputs": [
        {
          "internalType": "bool",
          "name": "",
          "type": "bool"
        }
      ],
      "stateMutability": "view",
      "type": "function"
    },
    {
      "inputs": [
        {
          "internalType": "uint256",
          "name": "",
          "type": "uint256"
        }
      ],
      "name": "rewardInformation",
      "outputs": [
        {
          "internalType": "bool",
          "name": "set",
          "type": "bool"
        },
        {
          "internalType": "uint248",
          "name": "amount",
          "type": "uint248"
        }
      ],
      "stateMutability": "view",
      "type": "function"
    },
    {
      "inputs": [
        {
          "internalType": "uint256",
          "name": "_fromEpoch",
          "type": "uint256"
        },
        {
          "internalType": "uint256",
          "name": "_toEpoch",
          "type": "uint256"
        },
        {
          "internalType": "uint248",
          "name": "_amountPerEpoch",
          "type": "uint248"
        }
      ],
      "name": "setRewards",
      "outputs": [],
      "stateMutability": "nonpayable",
      "type": "function"
    },
    {
      "inputs": [
        {
          "internalType": "address",
          "name": "_lender",
          "type": "address"
        },
        {
          "internalType": "int256",
          "name": "_delta",
          "type": "int256"
        }
      ],
      "name": "sync_ledger",
      "outputs": [],
      "stateMutability": "nonpayable",
      "type": "function"
    },
    {
      "inputs": [
        {
          "internalType": "address",
          "name": "",
          "type": "address"
        },
        {
          "internalType": "address",
          "name": "",
          "type": "address"
        }
      ],
      "name": "userClaimedEpoch",
      "outputs": [
        {
          "internalType": "uint256",
          "name": "",
          "type": "uint256"
        }
      ],
      "stateMutability": "view",
      "type": "function"
    },
    {
      "inputs": [
        {
          "internalType": "address",
          "name": "_market",
          "type": "address"
        },
        {
          "internalType": "bool",
          "name": "_isWhiteListed",
          "type": "bool"
        }
      ],
      "name": "whiteListLendingMarket",
      "outputs": [],
      "stateMutability": "nonpayable",
      "type": "function"
    },
    {
      "stateMutability": "payable",
      "type": "receive"
    }
  ],
  "bytecode": {
    "object": "0x60803461008d57601f61125738819003918201601f19168301916001600160401b0383118484101761009257808492604094855283398101031261008d57610052602061004b836100a8565b92016100a8565b600180546001600160a01b039384166001600160a01b0319918216179091556000805492909316911617905560405161119a90816100bd8239f35b600080fd5b634e487b7160e01b600052604160045260246000fd5b51906001600160a01b038216820361008d5756fe60806040818152600480361015610021575b505050361561001f57600080fd5b005b600092833560e01c908163122d914014610ab2575080632bc43fd9146106725780632ff426831461063b57806331088594146106075780635aa6e675146105e15780636efa4c8a146105a157806373ae41601461056157806376201b52146104b8578063798a45a7146103e4578063854ac7061461039b57806393d62fc2146102e157806399eecb3b146102b9578063e210b3b714610183578063eec9e65114610147578063f4359ce5146101255763f6be438003610011573461012157816003193601126101215760209282916100f7610e27565b6100ff610e42565b916001600160a01b038092168452865283832091168252845220549051908152f35b8280fd5b5050346101435781600319360112610143576020905162093a808152f35b5080fd5b5050346101435760203660031901126101435760ff816020936001600160a01b03610170610e27565b1681526002855220541690519015158152f35b50346101215760603660031901126101215780359060249182356044948535957effffffffffffffffffffffffffffffffffffffffffffffffffffffffffffff871687036102b55762093a80938481061580156102aa575b6101e490610e8d565b84840615801561029f575b6101f890610e8d565b6001600160a01b03895416330361029b5792966001600891821b60ff191617935b88811115610225578980f35b808a526020828152848b209060ff82541661025b57508590558581018091111561021957878a601189634e487b7160e01b835252fd5b887f5265776172647320616c726561647920736574000000000000000000000000008660138d6064958b519562461bcd60e51b8752860152840152820152fd5b8880fd5b5060001984146101ef565b5060001981146101db565b8780fd5b5050346101435781600319360112610143576020906001600160a01b03600154169051908152f35b5090346101215780600319360112610121576102fb610e27565b9160243592831515809403610397576001600160a01b039081865416330361039357169081855260026020528360ff848720541615151461035057508352600260205282209060ff8019835416911617905580f35b606490602084519162461bcd60e51b8352820152600960248201527f4e6f206368616e676500000000000000000000000000000000000000000000006044820152fd5b8580fd5b8480fd5b505034610143578060031936011261014357806020926103b9610e27565b6103c1610e42565b6001600160a01b0391821683526007865283832091168252845220549051908152f35b50829034610143576103f536610e58565b9262093a8084939293061580156104ad575b61041090610e8d565b6001600160a01b03808316865281602052868620908416865260205285852054156104445750610441939450610fe8565b80f35b608490602087519162461bcd60e51b8352820152602a60248201527f4e6f206465706f7369747320666f722074686973206c656e64657220696e207460448201527f686973206d61726b6574000000000000000000000000000000000000000000006064820152fd5b506000198414610407565b508290346101435782600319360112610143576104d3610e27565b6024359162093a808306158015610556575b6104ee90610e8d565b6001600160a01b03821684526006602052848420541561051357509061044191610f01565b606490602086519162461bcd60e51b8352820152601b60248201527f4e6f206465706f7369747320666f722074686973206d61726b657400000000006044820152fd5b5060001983146104e5565b505034610143578060209261057536610e58565b916001600160a01b03809116845260038752848420911683528552828220908252845220549051908152f35b505034610143578060031936011261014357806020926001600160a01b036105c7610e27565b168152600584528181206024358252845220549051908152f35b5050346101435781600319360112610143576001600160a01b0360209254169051908152f35b5034610121576020366003190112610121579181923581526008602052205481519060ff81161515825260081c6020820152f35b50503461014357602036600319011261014357806020926001600160a01b03610662610e27565b1681526006845220549051908152f35b5090346101215760603660031901126101215761068d610e27565b60449160249190833562093a808435818106158015610aa7575b6106b090610e8d565b818306158015610a9c575b6106c490610e8d565b6001600160a01b039182861691828b5260209660078852868c20338d528852868c2054908115610a5c5786610703916106fe823383610fe8565b610f01565b8242049183830292808404851490151715610a4a5780821115610a425750945b62093a7f19820191821161096d578b95949392919080821015610a3a5750925b8594808510156107f6575b50505050508061075c575080f35b81808092335af13d156107f1573d67ffffffffffffffff81116107df5782519061078f601f8201601f191686018361112c565b815287843d92013e5b156107a1578580f35b5162461bcd60e51b8152938401526014908301527f4661696c656420746f2073656e642043414e544f00000000000000000000000090820152606490fd5b8488604189634e487b7160e01b835252fd5b610798565b90919293949550905b848211156108425750508201809211610830578852600784528288203389528452828820558690388080808061074e565b858960118a634e487b7160e01b835252fd5b9094838c5260038852868c20338d528852868c20868d528852868c2054848d52600589528c87898220915289528c888120549189600892838d52208a51908b820182811067ffffffffffffffff821117610a24578c52548c60ff821615928315815201931c83526109e357908e918c8f8f8a908f928f8f9089918d60015416915197889687957f6472eee10000000000000000000000000000000000000000000000000000000087528601528401525af19384156109d857936109a3575b5061092e7effffffffffffffffffffffffffffffffffffffffffffffffffffffffffffff9161093794610ed8565b91511690610ed8565b670de0b6b3a7640000918083029283040361099157811561097f5704810180911161096d579482810180911161096d57906107ff565b888c60118d634e487b7160e01b835252fd5b8a8e60128f634e487b7160e01b835252fd5b8a8e60118f634e487b7160e01b835252fd5b92508b83813d83116109d1575b6109ba818361112c565b810103126109cd5791519161092e610900565b8f80fd5b503d6109b0565b8c51903d90823e3d90fd5b5060648d7f526577617264206e6f74207365742079657400000000000000000000000000008e60128f8f8f519562461bcd60e51b8752860152840152820152fd5b505050508a8e60418f634e487b7160e01b835252fd5b905092610743565b905094610723565b898d60118e634e487b7160e01b835252fd5b60648c7f4e6f206465706f7369747320666f7220746869732075736572000000000000008d60198e8e8e519562461bcd60e51b8752860152840152820152fd5b5060001983146106bb565b5060001981146106a7565b8493915034610e235781600319360112610e2357610ace610e27565b9060249384353387526020926002845260ff868920541615610de4575062093a808042049481860295808704831490151715610dd2573389528385526001600160a01b03878a20911690818a5285528689205490600019908188109283600014610dcb5788905b80610d25575050338b5260078752888b20818c52875287898c2055338b52858752888b20818c52875287898c20555b338b5260038752888b20818c528752888b20888c528752610b88858a8d2054611110565b908b8212610ce457338c5260038852898c20908c528752888b20888c528752888b2055338a5260068652878a205491600014610cde575085915b81610c5157505050610bf3903388526006845284868920555b33885260058452858820858952845285882054611110565b94868612610c11575050338552600581528285209185525282205580f35b60189060649386519362461bcd60e51b85528401528201527f4d61726b65742062616c616e636520756e646572666c6f7700000000000000006044820152fd5b868210610c65575b505050610bf390610bdb565b600590818752888b20838c528752888b2054835b8a8d87831115610cae5750505050505090610bf392918111610c9d575b8192610c59565b338952600685528689205588610c96565b908391338152868c528181208482528c52205582810180911115610c79578b8d60118a634e487b7160e01b835252fd5b91610bc2565b60648760188d8b8e519362461bcd60e51b85528401528201527f4c656e6465722062616c616e636520756e646572666c6f7700000000000000006044820152fd5b898110610d34575b5050610b64565b338d528c8b600391828c528181208682528c528181208482528c528b828220549285925b87841115610d8b575050505050508111610d73575b80610d2d565b338c52868852898c20828d528852898c20558b610d6d565b84923382528681528282208a8352815282822090858352522055888101809111610db8578f8e8d91610d58565b508d8f60118c634e487b7160e01b835252fd5b8290610b35565b8789601186634e487b7160e01b835252fd5b80601688868662461bcd60e51b606496528401528201527f4d61726b6574206e6f742077686974656c6973746564000000000000000000006044820152fd5b8380fd5b600435906001600160a01b0382168203610e3d57565b600080fd5b602435906001600160a01b0382168203610e3d57565b6060906003190112610e3d576001600160a01b03906004358281168103610e3d57916024359081168103610e3d579060443590565b15610e9457565b606460405162461bcd60e51b815260206004820152601160248201527f496e76616c69642074696d657374616d700000000000000000000000000000006044820152fd5b81810292918115918404141715610eeb57565b634e487b7160e01b600052601160045260246000fd5b9062093a808042049281840293808504831490151715610eeb576001600160a01b031690600091808352602091600683526040948585205490808810600014610fe2575086915b81610f5a575050508252600690522055565b9091968294939410610f70575b50505050505050565b600590818452868620838752845286862054835b89811115610fb057505050508511610f9e575b8080610f67565b60069183525220553880808080610f97565b8688528386528888208189528652818989205582810180911115610f8457602488634e487b7160e01b81526011600452fd5b91610f48565b9062093a80908142049382850294808604841490151715610eeb576001600160a01b038094169260009380855260049160209383855260409788882096169586885285528787205490808a1060001461110a575088915b8161106a57505050808552600783528585208486528352868686205584528152838320918352522055565b909198821061107f575b505050505050505050565b8287526003908186528888208789528652888820838952865288882054835b8b8111156110d1575050505087116110b8575b8080611074565b84528152838320918352522055388080808080806110b1565b858a528388528a8a20898b5288528a8a20818b528852818b8b20558281018091111561109e5760248a601189634e487b7160e01b835252fd5b9161103f565b91909160008382019384129112908015821691151617610eeb57565b90601f8019910116810190811067ffffffffffffffff82111761114e57604052565b634e487b7160e01b600052604160045260246000fdfea2646970667358221220278f826cfe1ae5d7aed00ec3b9c444712e663c9ca46fcab68bf8dafe93ad242264736f6c63430008110033",
    "linkReferences": {}
  },
  "methodIdentifiers": {
    "WEEK()": "f4359ce5",
    "checkpoint_lender(address,address,uint256)": "798a45a7",
    "checkpoint_market(address,uint256)": "76201b52",
    "claim(address,uint256,uint256)": "2bc43fd9",
    "gaugeController()": "99eecb3b",
    "governance()": "5aa6e675",
    "lendingMarketBalances(address,address,uint256)": "73ae4160",
    "lendingMarketBalancesEpoch(address,address)": "f6be4380",
    "lendingMarketTotalBalance(address,uint256)": "6efa4c8a",
    "lendingMarketTotalBalanceEpoch(address)": "2ff42683",
    "lendingMarketWhitelist(address)": "eec9e651",
    "rewardInformation(uint256)": "31088594",
    "setRewards(uint256,uint256,uint248)": "e210b3b7",
    "sync_ledger(address,int256)": "122d9140",
    "userClaimedEpoch(address,address)": "854ac706",
    "whiteListLendingMarket(address,bool)": "93d62fc2"
  },
  "id": 20
}