{
  "abi": [
    {
      "inputs": [
        {
          "internalType": "string",
          "name": "_name",
          "type": "string"
        },
        {
          "internalType": "string",
          "name": "_symbol",
          "type": "string"
        }
      ],
      "stateMutability": "nonpayable",
      "type": "constructor"
    },
    {
      "anonymous": false,
      "inputs": [
        {
          "indexed": true,
          "internalType": "address",
          "name": "provider",
          "type": "address"
        },
        {
          "indexed": false,
          "internalType": "uint256",
          "name": "value",
          "type": "uint256"
        },
        {
          "indexed": false,
          "internalType": "uint256",
          "name": "locktime",
          "type": "uint256"
        },
        {
          "indexed": true,
          "internalType": "enum VotingEscrow.LockAction",
          "name": "action",
          "type": "uint8"
        },
        {
          "indexed": false,
          "internalType": "uint256",
          "name": "ts",
          "type": "uint256"
        }
      ],
      "name": "Deposit",
      "type": "event"
    },
    {
      "anonymous": false,
      "inputs": [],
      "name": "Unlock",
      "type": "event"
    },
    {
      "anonymous": false,
      "inputs": [
        {
          "indexed": true,
          "internalType": "address",
          "name": "provider",
          "type": "address"
        },
        {
          "indexed": false,
          "internalType": "uint256",
          "name": "value",
          "type": "uint256"
        },
        {
          "indexed": true,
          "internalType": "enum VotingEscrow.LockAction",
          "name": "action",
          "type": "uint8"
        },
        {
          "indexed": false,
          "internalType": "uint256",
          "name": "ts",
          "type": "uint256"
        }
      ],
      "name": "Withdraw",
      "type": "event"
    },
    {
      "inputs": [],
      "name": "LOCKTIME",
      "outputs": [
        {
          "internalType": "uint256",
          "name": "",
          "type": "uint256"
        }
      ],
      "stateMutability": "view",
      "type": "function"
    },
    {
      "inputs": [],
      "name": "MULTIPLIER",
      "outputs": [
        {
          "internalType": "uint256",
          "name": "",
          "type": "uint256"
        }
      ],
      "stateMutability": "view",
      "type": "function"
    },
    {
      "inputs": [],
      "name": "WEEK",
      "outputs": [
        {
          "internalType": "uint256",
          "name": "",
          "type": "uint256"
        }
      ],
      "stateMutability": "view",
      "type": "function"
    },
    {
      "inputs": [
        {
          "internalType": "address",
          "name": "_owner",
          "type": "address"
        }
      ],
      "name": "balanceOf",
      "outputs": [
        {
          "internalType": "uint256",
          "name": "",
          "type": "uint256"
        }
      ],
      "stateMutability": "view",
      "type": "function"
    },
    {
      "inputs": [
        {
          "internalType": "address",
          "name": "_owner",
          "type": "address"
        },
        {
          "internalType": "uint256",
          "name": "_blockNumber",
          "type": "uint256"
        }
      ],
      "name": "balanceOfAt",
      "outputs": [
        {
          "internalType": "uint256",
          "name": "",
          "type": "uint256"
        }
      ],
      "stateMutability": "view",
      "type": "function"
    },
    {
      "inputs": [],
      "name": "checkpoint",
      "outputs": [],
      "stateMutability": "nonpayable",
      "type": "function"
    },
    {
      "inputs": [
        {
          "internalType": "uint256",
          "name": "_value",
          "type": "uint256"
        }
      ],
      "name": "createLock",
      "outputs": [],
      "stateMutability": "payable",
      "type": "function"
    },
    {
      "inputs": [],
      "name": "decimals",
      "outputs": [
        {
          "internalType": "uint256",
          "name": "",
          "type": "uint256"
        }
      ],
      "stateMutability": "view",
      "type": "function"
    },
    {
      "inputs": [
        {
          "internalType": "address",
          "name": "_addr",
          "type": "address"
        }
      ],
      "name": "delegate",
      "outputs": [],
      "stateMutability": "nonpayable",
      "type": "function"
    },
    {
      "inputs": [
        {
          "internalType": "address",
          "name": "_addr",
          "type": "address"
        }
      ],
      "name": "getLastUserPoint",
      "outputs": [
        {
          "internalType": "int128",
          "name": "bias",
          "type": "int128"
        },
        {
          "internalType": "int128",
          "name": "slope",
          "type": "int128"
        },
        {
          "internalType": "uint256",
          "name": "ts",
          "type": "uint256"
        }
      ],
      "stateMutability": "view",
      "type": "function"
    },
    {
      "inputs": [],
      "name": "globalEpoch",
      "outputs": [
        {
          "internalType": "uint256",
          "name": "",
          "type": "uint256"
        }
      ],
      "stateMutability": "view",
      "type": "function"
    },
    {
      "inputs": [
        {
          "internalType": "uint256",
          "name": "_value",
          "type": "uint256"
        }
      ],
      "name": "increaseAmount",
      "outputs": [],
      "stateMutability": "payable",
      "type": "function"
    },
    {
      "inputs": [
        {
          "internalType": "address",
          "name": "_addr",
          "type": "address"
        }
      ],
      "name": "lockEnd",
      "outputs": [
        {
          "internalType": "uint256",
          "name": "",
          "type": "uint256"
        }
      ],
      "stateMutability": "view",
      "type": "function"
    },
    {
      "inputs": [
        {
          "internalType": "address",
          "name": "",
          "type": "address"
        }
      ],
      "name": "locked",
      "outputs": [
        {
          "internalType": "int128",
          "name": "amount",
          "type": "int128"
        },
        {
          "internalType": "uint256",
          "name": "end",
          "type": "uint256"
        },
        {
          "internalType": "int128",
          "name": "delegated",
          "type": "int128"
        },
        {
          "internalType": "address",
          "name": "delegatee",
          "type": "address"
        }
      ],
      "stateMutability": "view",
      "type": "function"
    },
    {
      "inputs": [],
      "name": "name",
      "outputs": [
        {
          "internalType": "string",
          "name": "",
          "type": "string"
        }
      ],
      "stateMutability": "view",
      "type": "function"
    },
    {
      "inputs": [
        {
          "internalType": "uint256",
          "name": "",
          "type": "uint256"
        }
      ],
      "name": "pointHistory",
      "outputs": [
        {
          "internalType": "int128",
          "name": "bias",
          "type": "int128"
        },
        {
          "internalType": "int128",
          "name": "slope",
          "type": "int128"
        },
        {
          "internalType": "uint256",
          "name": "ts",
          "type": "uint256"
        },
        {
          "internalType": "uint256",
          "name": "blk",
          "type": "uint256"
        }
      ],
      "stateMutability": "view",
      "type": "function"
    },
    {
      "inputs": [
        {
          "internalType": "uint256",
          "name": "",
          "type": "uint256"
        }
      ],
      "name": "slopeChanges",
      "outputs": [
        {
          "internalType": "int128",
          "name": "",
          "type": "int128"
        }
      ],
      "stateMutability": "view",
      "type": "function"
    },
    {
      "inputs": [],
      "name": "symbol",
      "outputs": [
        {
          "internalType": "string",
          "name": "",
          "type": "string"
        }
      ],
      "stateMutability": "view",
      "type": "function"
    },
    {
      "inputs": [],
      "name": "totalSupply",
      "outputs": [
        {
          "internalType": "uint256",
          "name": "",
          "type": "uint256"
        }
      ],
      "stateMutability": "view",
      "type": "function"
    },
    {
      "inputs": [
        {
          "internalType": "uint256",
          "name": "_blockNumber",
          "type": "uint256"
        }
      ],
      "name": "totalSupplyAt",
      "outputs": [
        {
          "internalType": "uint256",
          "name": "",
          "type": "uint256"
        }
      ],
      "stateMutability": "view",
      "type": "function"
    },
    {
      "inputs": [
        {
          "internalType": "address",
          "name": "",
          "type": "address"
        }
      ],
      "name": "userPointEpoch",
      "outputs": [
        {
          "internalType": "uint256",
          "name": "",
          "type": "uint256"
        }
      ],
      "stateMutability": "view",
      "type": "function"
    },
    {
      "inputs": [
        {
          "internalType": "address",
          "name": "",
          "type": "address"
        },
        {
          "internalType": "uint256",
          "name": "",
          "type": "uint256"
        }
      ],
      "name": "userPointHistory",
      "outputs": [
        {
          "internalType": "int128",
          "name": "bias",
          "type": "int128"
        },
        {
          "internalType": "int128",
          "name": "slope",
          "type": "int128"
        },
        {
          "internalType": "uint256",
          "name": "ts",
          "type": "uint256"
        },
        {
          "internalType": "uint256",
          "name": "blk",
          "type": "uint256"
        }
      ],
      "stateMutability": "view",
      "type": "function"
    },
    {
      "inputs": [],
      "name": "withdraw",
      "outputs": [],
      "stateMutability": "nonpayable",
      "type": "function"
    }
  ],
  "bytecode": {
    "object": "0x604060808152346200036d5762002ccf803803806200001e8162000372565b92833981019082818303126200036d5780516001600160401b0391908281116200036d578362000050918301620003ae565b90602093848201518481116200036d576200006c9201620003ae565b9060019160008381556012600355865160808101818110878211176200035957885281815281878201524288820152606043910152806005554260065543600755825185811162000345578454938585811c951680156200033a575b8886101462000326578190601f95868111620002d3575b5088908683116001146200026f57849262000263575b5050600019600383901b1c191690851b1784555b81519485116200024f576002548481811c9116801562000244575b878210146200023057838111620001e7575b50859285116001146200017e57939450849291908362000172575b50501b916000199060031b1c1916176002555b516128ae9081620004218239f35b01519250388062000151565b6002815285812093958591601f198316915b88838310620001cc5750505010620001b2575b505050811b0160025562000164565b015160001960f88460031b161c19169055388080620001a3565b85870151885590960195948501948793509081019062000190565b600282528682208480880160051c82019289891062000226575b0160051c019085905b8281106200021a57505062000136565b8381550185906200020a565b9250819262000201565b634e487b7160e01b82526022600452602482fd5b90607f169062000124565b634e487b7160e01b81526041600452602490fd5b015190503880620000f5565b8785528985208894509190601f198416865b8c828210620002bc5750508411620002a2575b505050811b01845562000109565b015160001960f88460031b161c1916905538808062000294565b8385015186558b9790950194938401930162000281565b9091508684528884208680850160051c8201928b86106200031c575b918991869594930160051c01915b8281106200030d575050620000df565b868155859450899101620002fd565b92508192620002ef565b634e487b7160e01b83526022600452602483fd5b94607f1694620000c8565b634e487b7160e01b82526041600452602482fd5b634e487b7160e01b83526041600452602483fd5b600080fd5b6040519190601f01601f191682016001600160401b038111838210176200039857604052565b634e487b7160e01b600052604160045260246000fd5b919080601f840112156200036d5782516001600160401b0381116200039857602090620003e4601f8201601f1916830162000372565b928184528282870101116200036d5760005b8181106200040c57508260009394955001015290565b8581018301518482018401528201620003f656fe608080604052600436101561001357600080fd5b60003560e01c908163059f8b16146117a85750806306fdde03146116ec57806315456eba146112c757806318160ddd146112885780632379227914611244578063242c8e6914611225578063313ce5671461120757806334d901a4146111835780633ccfd60b14610eea5780634ee2cd7e14610ec35780635719098b14610ea55780635c19a95c1461092757806370a082311461090457806381fc83bb146108c35780638ad4c4471461085957806395d89b4114610754578063981b24d01461072e578063c2c4c5c114610425578063c4698ee5146103e9578063cbf9fe5f1461037d578063f4359ce51461035f578063f52a36f7146103295763f7d9d0c41461011c57600080fd5b6020806003193601126103245760043561013461212b565b6309660180420180421161030e5761014b906122ad565b90336000526729a2241af62c00088084526040600020600360405192610170846117c9565b825492600f93840b85526001810154918886019283526002820154850b91604087019283526001600160a01b0394859101541694606087019586526101b6881515612095565b6101c18834146120e0565b8651810b6102ca579360036102c0979460009b948a9894886102218e7fbe9cf0e939c614fad640a623a53ba0a807c8cb503c4c4c8dacabe27b86ff2dd59e61029f9c0b90610212828d51860b611a41565b840b8c5286528451830b611a41565b900b8252338652338e52865260408d20918751906001600160801b031990818554166001600160801b03938416178555516001850155600284019251908354169116179055019151166001600160a01b03198254161790558760405191610287836117c9565b81835282015287604082015287606082015233611a79565b60405191829133954291846040919493926060820195825260208201520152565b0390a36001600055005b60648a6040519062461bcd60e51b82526004820152600b60248201527f4c6f636b206578697374730000000000000000000000000000000000000000006044820152fd5b634e487b7160e01b600052601160045260246000fd5b600080fd5b34610324576020366003190112610324576004356000526729a2241af62c00076020526020604060002054600f0b604051908152f35b3461032457600036600319011261032457602060405162093a808152f35b346103245760203660031901126103245760806001600160a01b03806103a1611850565b166000526729a2241af62c000860205260406000209081549160018101549160036002830154920154169160405193600f0b84526020840152600f0b60408301526060820152f35b3461032457602036600319011261032457606061040c610407611850565b6118b4565b9060405192600f0b8352600f0b60208301526040820152f35b346103245760003660031901126103245761043e61191c565b5061044761191c565b5061045061191c565b50600454604051610460816117c9565b600081526020906000828201524260408201524360608201529082610707575b60408201908151606084019182519160405161049b816117c9565b600081526000838201526060604082019183835201938452600090865142116106ca575b6104cd8397969594936122ad565b926000975b60ff8910610550575b50505050505050505081600455670de0b6b3a764000082101561053a578051602082015160801b6001600160801b0319166001600160801b03909116176005600393909302928301556040810151600683015560600151600790910155005b634e487b7160e01b600052603260045260246000fd5b62093a8085969798999b950180961161030e5760009580428111156106a357505060008a816105b642998a935b6105a96105a06105928a8401998a5198611941565b96600f97880b90880b61194e565b8251870b611a09565b850b90528551840b611a41565b820b918285528d51900b1261069b575b12610691575b50849385895286519a6105fe670de0b6b3a76400009c8d6105f76105f188518c611941565b896119c7565b0490611965565b89526001820180921161030e57819b4288146000146106335750505050505050505090504390528280808080808080806104db565b82101561053a578a5160208c015160801b6001600160801b0319166001600160801b039091161760056003939093029283015560408b0151600683015560608b0151600790920191909155610687906119fa565b97969594936104d2565b600090528a6105cc565b818c526105c6565b9096506000526729a2241af62c00078252600086816105b68d6040832054600f0b9061057d565b90506106d7855143611941565b670de0b6b3a7640000908082029182040361030e57610701906106fb885142611941565b906119da565b906104bf565b9050670de0b6b3a764000082101561053a576107286003830260050161187d565b90610480565b3461032457602036600319011261032457602061074c600435612739565b604051908152f35b3461032457600036600319011261032457604051600090600254600181811c9080831692831561084f575b60209384841081146108395783865290811561081957506001146107be575b6107ba846107ae818803826117e5565b60405191829182611807565b0390f35b600260009081529294507f405787fa12a823e0f2b7631cc41b3ba8828b3321ca811111fa75cd3aa3bb5ace5b82841061080657505050816107ba936107ae928201019361079e565b80548585018701529285019281016107ea565b60ff1916858501525050151560051b82010191506107ae816107ba61079e565b634e487b7160e01b600052602260045260246000fd5b91607f169161077f565b3461032457602036600319011261032457600435670de0b6b3a76400008110156103245760030280600501546107ba600760068401549301546040519383859460801d90600f0b85909493926060926080830196600f0b8352600f0b602083015260408201520152565b34610324576020366003190112610324576001600160a01b036108e4611850565b166000526729a2241af62c00066020526020604060002054604051908152f35b3461032457602036600319011261032457602061074c610922611850565b6122c7565b3461032457602036600319011261032457610940611850565b61094861212b565b336000526729a2241af62c000860205260406000206109a760006040519261096f846117c9565b6001600160a01b0360038254600f0b92838752600181015460208801526002810154600f0b6040880152015416606085015213612180565b6001600160a01b036060820151166001600160a01b03831614610e61578051600f0b906001600160a01b03606082015116906109e161191c565b506109ea61191c565b506001600160a01b0384166060820152338203610cd657906001600160a01b0384166000526729a2241af62c000860205260406000206001600160a01b03600360405192610a37846117c9565b8054600f0b8452600181015460208501526002810154600f0b60408501520154166060820152915b610a6f60008451600f0b136121cb565b60208301610a7f81514210612216565b51602082015111610c9257610a9381612261565b90610aa5856040840151600f0b611a09565b600f0b60408301526007837fc6c74a68f89b63353b582f75a2009daefef14ef389fbf7e30edb6141f414f02860408051898152426020820152a3826000526729a2241af62c00086020526000604081208351906001600160801b0319815416826001600160801b0316178155602085015160018201556002810160408601516001600160801b0319825416906001600160801b031617905560036001600160a01b036060870151166001600160a01b0319828401541617910155600f0b13610c81575b5050506006610b7682612261565b92610b88816040860151600f0b611a41565b600f0b60408581019190915260208086015182519384529083015242908201526001600160a01b038516907fbe9cf0e939c614fad640a623a53ba0a807c8cb503c4c4c8dacabe27b86ff2dd590606090a36001600160a01b0383166000526729a2241af62c000860205260006040812060038451916001600160801b0319815416836001600160801b0316178155602086015160018201556002810160408701516001600160801b0319825416906001600160801b0316179055016001600160a01b036060860151166001600160a01b0319825416179055600f0b13610c70575b6001600055005b610c7992611a79565b808080610c69565b610c8a92611a79565b838080610b68565b606460405162461bcd60e51b815260206004820152601c60248201527f4f6e6c792064656c656761746520746f206c6f6e676572206c6f636b000000006044820152fd5b906001600160a01b0384163303610d3e57806000526729a2241af62c000860205260406000206001600160a01b03600360405192610d13846117c9565b8054600f0b8452600181015460208501526002810154600f0b60408501520154166060820152610a5f565b806000526729a2241af62c000860205260406000206001600160a01b03600360405192610d6a846117c9565b8054600f0b8452600181015460208501526002810154600f0b604085015201541660608201526001600160a01b0385166000526729a2241af62c000860205260406000206001600160a01b03600360405192610dc5846117c9565b8054600f0b8452600181015460208501526002810154600f0b6040850152015416606082015292336000526729a2241af62c00086020526001600160a01b0360606003604060002084516001600160801b031990818354166001600160801b03918216178355602087015160018401556002830191604088015190835416911617905501920151166001600160a01b0319825416179055610a5f565b606460405162461bcd60e51b815260206004820152601160248201527f416c72656164792064656c6567617465640000000000000000000000000000006044820152fd5b34610324576000366003190112610324576020600454604051908152f35b3461032457604036600319011261032457602061074c610ee1611850565b602435906123ac565b3461032457600036600319011261032457610f0361212b565b336000526729a2241af62c00086020908082526003604060002060405190610f2a826117c9565b8054600f0b90818352610f6d60006001830154928886019384526002810154600f0b60408701526001600160a01b03968791015416936060860194855213612180565b51421061113f578233915116036110fb579061101c9160006001600160801b038083511695610f9b84612261565b948386526003898701938585526040880194610fbe8b600f0b8751600f0b611a09565b600f0b865260608901948786523388528c5260408720918951916001600160801b0319928385541690831617845551600184015560028301918751908354169116179055019151166001600160a01b03198254161790555233611a79565b600080808084335af13d156110f6573d67ffffffffffffffff81116110e05760405190611052601f8201601f19168601836117e5565b81526000843d92013e5b1561109c5760049160405191825242908201527fc6c74a68f89b63353b582f75a2009daefef14ef389fbf7e30edb6141f414f02860403392a36001600055005b6064826040519062461bcd60e51b82526004820152601460248201527f4661696c656420746f2073656e642043414e544f0000000000000000000000006044820152fd5b634e487b7160e01b600052604160045260246000fd5b61105c565b6064846040519062461bcd60e51b82526004820152600e60248201527f4c6f636b2064656c6567617465640000000000000000000000000000000000006044820152fd5b6064856040519062461bcd60e51b82526004820152601060248201527f4c6f636b206e6f742065787069726564000000000000000000000000000000006044820152fd5b346103245760403660031901126103245761119c611850565b6001600160a01b0360243591166000526729a2241af62c0005602052604060002090633b9aca00811015610324576111d391611866565b508054600182015460029092015460408051600f84810b8252608094851d900b602082015290810193909352606083015290f35b34610324576000366003190112610324576020600354604051908152f35b3461032457600036600319011261032457602060405163096601808152f35b34610324576020366003190112610324576001600160a01b03611265611850565b166000526729a2241af62c00086020526020600160406000200154604051908152f35b3461032457600036600319011261032457600454670de0b6b3a764000081101561053a5761074c6112c060036020930260050161187d565b4290612650565b6020366003190112610324576112db61212b565b336000526729a2241af62c000860205260406000206040516112fc816117c9565b8154600f0b81526001600160a01b036003600184015493602084019485526002810154600f0b60408501520154166060820190815261133e6004351515612095565b61134b60043534146120e0565b61135b60008351600f0b13612180565b82514210156116a8576001600160a01b0390511691519060019061137e81612261565b91611392600435600f0b8451600f0b611a41565b600f0b835263096601804201421161030e576113b3630966018042016122ad565b60208401908152943381036114bb57505090611458916003600295604084016113e5600435600f0b8251600f0b611a41565b600f0b8152336000526729a2241af62c00086020526040600020918551906001600160801b031990818554166001600160801b03938416178555516001850155600284019251908354169116179055016001600160a01b036060840151166001600160a01b031982541617905533611a79565b60088210156114a5576040805160043581526020810192909252429082015233907fbe9cf0e939c614fad640a623a53ba0a807c8cb503c4c4c8dacabe27b86ff2dd59080606081016102c0565b634e487b7160e01b600052602160045260246000fd5b919260069360036115449397336000526729a2241af62c000860205260406000209084516001600160801b0319835416906001600160801b03161782555160018201556002810160408501516001600160801b0319825416906001600160801b0316179055016001600160a01b036060840151166001600160a01b031982541617905533611a79565b806000526729a2241af62c00086020527fbe9cf0e939c614fad640a623a53ba0a807c8cb503c4c4c8dacabe27b86ff2dd56116a060406000206115d56040519161158d836117c9565b6115cc60008254600f0b8086526001600160a01b036003600186015495602089019687526002810154600f0b60408a01520154166060870152136121cb565b42905111612216565b61167f6115e182612261565b60408101926115f9600435600f0b8551600f0b611a41565b600f0b8452866000526729a2241af62c00086020526003604060002083516001600160801b0319825416906001600160801b03161781556020840195865160018301556002820190516001600160801b0319825416906001600160801b0316179055016001600160a01b036060840151166001600160a01b031982541617905586611a79565b51604080516004358152602081019290925242908201529081906060820190565b0390a3611458565b606460405162461bcd60e51b815260206004820152600c60248201527f4c6f636b206578706972656400000000000000000000000000000000000000006044820152fd5b3461032457600036600319011261032457604051600090600180549081811c9080831692831561179e575b6020938484108114610839578386529081156108195750600114611745576107ba846107ae818803826117e5565b60008181529294507fb10e2d527612073b26eecdfd717e6a320cf44b4afac2b0732d9fcbe2b7fa0cf65b82841061178b57505050816107ba936107ae928201019361079e565b805485850187015292850192810161176f565b91607f1691611717565b346103245760003660031901126103245780670de0b6b3a764000060209252f35b6080810190811067ffffffffffffffff8211176110e057604052565b90601f8019910116810190811067ffffffffffffffff8211176110e057604052565b6020808252825181830181905290939260005b82811061183c57505060409293506000838284010152601f8019910116010190565b81810186015184820160400152850161181a565b600435906001600160a01b038216820361032457565b90633b9aca0081101561053a576003020190600090565b9060405161188a816117c9565b606060028294805480600f0b855260801d600f0b6020850152600181015460408501520154910152565b6001600160a01b036000911681526729a2241af62c000660205260408120548015611915576118f59060406118fb936729a2241af62c000560205220611866565b5061187d565b908151600f0b9060406020840151600f0b93015191929190565b5080918190565b60405190611929826117c9565b60006060838281528260208201528260408201520152565b9190820391821161030e57565b90600f0b90600f0b029081600f0b91820361030e57565b9190820180921161030e57565b91906119b1578051602082015160801b6001600160801b0319166001600160801b03909116178255604081015160018301556060015160029190910155565b634e487b7160e01b600052600060045260246000fd5b8181029291811591840414171561030e57565b81156119e4570490565b634e487b7160e01b600052601260045260246000fd5b600019811461030e5760010190565b90600f0b90600f0b03906f7fffffffffffffffffffffffffffffff82136f7fffffffffffffffffffffffffffffff1983121761030e57565b90600f0b90600f0b01906f7fffffffffffffffffffffffffffffff1982126f7fffffffffffffffffffffffffffffff83131761030e57565b919091611a8461191c565b92611a8d61191c565b9260009485936001600160a01b0360045491169081611edf575b604051611ab3816117c9565b600081526000602082015242604082015243606082015281611eba575b604081015160608201519060405191611ae8836117c9565b6000835260006020840152816040840152606083015260009160408401514211611e68575b9190611b18816122ad565b926000935b60ff8510611cf5575b50505050508160045582611c79575b670de0b6b3a764000082101561053a578051602082015160801b6001600160801b0319166001600160801b03909116176005600393909302928301556040810151600683015560600151600790910155611b92575b505050505050565b60208093019542875111611c0d575b50500192835190428211611bb6575b80611b8a565b5110611bc4575b8080611bb0565b6020611bd5920151600f0b90611a09565b90516000526729a2241af62c00076020526040600020906001600160801b0319825416906001600160801b0316179055388080611bbd565b83611c1d920151600f0b90611a41565b8083830151875114611c61575b5085516000526729a2241af62c000783526040600020906001600160801b0319825416906001600160801b03161790553880611ba1565b611c73915083860151600f0b90611a09565b38611c2a565b600060208201805190611ca8611c9b60208d015193600f94850b90850b611a41565b6020890151840b90611a09565b820b815282611ccc611cc28d8751860b9051860b90611a41565b8951850b90611a09565b830b928386528251900b12611cec575b501215611b355760008152611b35565b82905238611cdc565b62093a80819792939495970180911161030e576000908042811115611e47575050600042945b81611d5a60208a0194611d4d611d44611d368851968c611941565b95600f96870b90870b61194e565b8c51860b611a09565b840b8b528551840b611a41565b820b918285528951900b12611e3f575b12611e35575b508290836040870152606083015196611da4670de0b6b3a764000098896105f7611d9e60408901518a611941565b8a6119c7565b60608801526001820180921161030e578197428614600014611dd757505050505050504360608201523880808080611b26565b82101561053a578651602088015160801b6001600160801b0319166001600160801b0390911617600560039390930292830155604087015160068301556060870151600790920191909155611e2b906119fa565b9392919091611b1d565b6000905238611d70565b818852611d6a565b826040916000939794526729a2241af62c00076020522054600f0b91611d1b565b91611e77606085015143611941565b90670de0b6b3a76400009180830292830403611ea65750611ea0906106fb604086015142611941565b91611b0d565b80634e487b7160e01b602492526011600452fd5b50670de0b6b3a764000081101561053a57611eda6003820260050161187d565b611ad0565b60208086018051421080612085575b612057575b81860199428b511180612047575b61200f575b8481526729a2241af62c00069283815260409384832054908115611fce575b60018201809211611fba5791611f768d611f706729a2241af62c00079487968c8b99528552808888205542888401524360608401528b87526729a2241af62c00058552878720611866565b90611972565b84518352522054600f0b99519081611f91575b505050611aa7565b5192975090918103611faa57505086945b388080611f89565b60005260002054600f0b94611fa2565b602484634e487b7160e01b81526011600452fd5b6729a2241af62c000583528584206001830190818411611ffb57611f70611ff6928c92611866565b611f25565b602486634e487b7160e01b81526011600452fd5b61203d63096601806040890151600f0b05600f0b80858d01526120348d429051611941565b600f0b9061194e565b600f0b8a52611f06565b50806040880151600f0b13611f01565b61207b63096601806040890151600f0b05600f0b8084880152612034428451611941565b600f0b8552611ef3565b50896040880151600f0b13611eee565b1561209c57565b606460405162461bcd60e51b815260206004820152601460248201527f4f6e6c79206e6f6e207a65726f20616d6f756e740000000000000000000000006044820152fd5b156120e757565b606460405162461bcd60e51b815260206004820152600d60248201527f496e76616c69642076616c7565000000000000000000000000000000000000006044820152fd5b60026000541461213c576002600055565b606460405162461bcd60e51b815260206004820152601f60248201527f5265656e7472616e637947756172643a207265656e7472616e742063616c6c006044820152fd5b1561218757565b606460405162461bcd60e51b815260206004820152600760248201527f4e6f206c6f636b000000000000000000000000000000000000000000000000006044820152fd5b156121d257565b606460405162461bcd60e51b815260206004820152601560248201527f44656c65676174656520686173206e6f206c6f636b00000000000000000000006044820152fd5b1561221d57565b606460405162461bcd60e51b815260206004820152601660248201527f44656c656761746565206c6f636b2065787069726564000000000000000000006044820152fd5b61226961191c565b50805190602081015160406001600160a01b036060840151169201519060405193612293856117c9565b600f0b84526020840152600f0b6040830152606082015290565b62093a8080910481810291818304149015171561030e5790565b6001600160a01b036000911681526729a2241af62c00066020526040812054801561235d57906123116118f56001600160801b03936729a2241af62c000560205260408420611866565b9080612343835161233a602086015161232e604088015142611941565b600f0b90600f0b61194e565b90600f0b611a09565b600f0b80845212612355575b50511690565b81523861234f565b5090565b1561236857565b606460405162461bcd60e51b815260206004820152601660248201527f4f6e6c79207061737420626c6f636b206e756d626572000000000000000000006044820152fd5b906123b943821115612361565b6001600160a01b0360009216908183526020926729a2241af62c000684526040928382205482905b6080821061254f575b5050811561254557612411916118f5916000526729a2241af62c0005865284600020611866565b926004549161242083826125c8565b93670de0b6b3a76400008086101561053a576124416003870260050161187d565b94861015612513576001860180961161030e5785101561053a5761232e6124bd9461233a9361247760036000990260050161187d565b9061249c8561248f6060850151606087015190611941565b9301518685015190611941565b905b8584015193836124de575b505050508751948801519288015190611941565b600f81900b9283905291126124d8576001600160801b031690565b50600090565b612504926124f961250a96959360606124ff94015190611941565b906119c7565b6119da565b90611965565b388080806124a9565b506000945061232e8461233a9361253160606124bd98015143611941565b9061253f8584015142611941565b9061249e565b5050505050600090565b9092818110156125c2576125638282611965565b600180820180921161030e571c90836000526729a2241af62c00058852856002612590848a600020611866565b500154116125a957506125a390936119fa565b906123e1565b939150600019810190811161030e576125a390916119fa565b926123ea565b6000919082915b608083106125de575b50505090565b9091928181101561264a576125f38282611965565b600180820180921161030e571c90670de0b6b3a764000082101561053a5760038202600701548410612631575061262a90936119fa565b91906125cf565b939150600019810190811161030e5761262a90916119fa565b926125d8565b919091604080820161266281516122ad565b9460005b60ff8110612698575b505050506001600160801b0391925060008151600f0b1261268f57511690565b60008152511690565b62093a80870180971161030e57600096808381111561271e57505081965b878651916126e760208901936126df85516126d5600f968b5190611941565b860b90860b61194e565b90840b611a09565b820b8852848a1461271657906127058392612711959451830b611a41565b900b90528784526119fa565b612666565b50505061266f565b88526729a2241af62c00076020529684902054600f0b6126b6565b61274543821115612361565b6004549061275382826125c8565b670de0b6b3a7640000928382101561053a576127746003830260050161187d565b926060840194855182811161286c5760009385101561281d57506001840180941161030e5783101561053a576127dc946127b660036127d6950260050161187d565b81516060820193845182036127df575b50505050505b6040830151611965565b90612650565b90565b6128139550916124f960406127fb612809946106fb9796611941565b92015160408a015190611941565b9251905190611941565b38808080806127c6565b90506127d693506127dc9591438203612839575b5050506127cc565b612864935061284e6106fb9261285c92611941565b6124f9604088015142611941565b915143611941565b388080612831565b5050505050505060009056fea2646970667358221220c20dcec764162ca8e3b6b1ca2829ba2d51d7548d043650cf4ece8951cdf80c8164736f6c63430008110033",
    "linkReferences": {}
  },
  "methodIdentifiers": {
    "LOCKTIME()": "242c8e69",
    "MULTIPLIER()": "059f8b16",
    "WEEK()": "f4359ce5",
    "balanceOf(address)": "70a08231",
    "balanceOfAt(address,uint256)": "4ee2cd7e",
    "checkpoint()": "c2c4c5c1",
    "createLock(uint256)": "f7d9d0c4",
    "decimals()": "313ce567",
    "delegate(address)": "5c19a95c",
    "getLastUserPoint(address)": "c4698ee5",
    "globalEpoch()": "5719098b",
    "increaseAmount(uint256)": "15456eba",
    "lockEnd(address)": "23792279",
    "locked(address)": "cbf9fe5f",
    "name()": "06fdde03",
    "pointHistory(uint256)": "8ad4c447",
    "slopeChanges(uint256)": "f52a36f7",
    "symbol()": "95d89b41",
    "totalSupply()": "18160ddd",
    "totalSupplyAt(uint256)": "981b24d0",
    "userPointEpoch(address)": "81fc83bb",
    "userPointHistory(address,uint256)": "34d901a4",
    "withdraw()": "3ccfd60b"
  },
  "id": 21
}